{
  "_format": "hh-sol-artifact-1",
  "contractName": "FundMe",
  "sourceName": "contracts/FundMe.sol",
  "abi": [
    {
      "inputs": [],
      "stateMutability": "nonpayable",
      "type": "constructor"
    },
    {
      "inputs": [],
      "name": "notOwner",
      "type": "error"
    },
    {
      "inputs": [],
      "name": "MINIMUM_USD",
      "outputs": [
        {
          "internalType": "uint256",
          "name": "",
          "type": "uint256"
        }
      ],
      "stateMutability": "view",
      "type": "function"
    },
    {
      "inputs": [
        {
          "internalType": "address",
          "name": "",
          "type": "address"
        }
      ],
      "name": "addressToAmountFunded",
      "outputs": [
        {
          "internalType": "uint256",
          "name": "",
          "type": "uint256"
        }
      ],
      "stateMutability": "view",
      "type": "function"
    },
    {
      "inputs": [],
      "name": "fund",
      "outputs": [],
      "stateMutability": "payable",
      "type": "function"
    },
    {
      "inputs": [
        {
          "internalType": "uint256",
          "name": "",
          "type": "uint256"
        }
      ],
      "name": "funders",
      "outputs": [
        {
          "internalType": "address",
          "name": "",
          "type": "address"
        }
      ],
      "stateMutability": "view",
      "type": "function"
    },
    {
      "inputs": [],
      "name": "i_owner",
      "outputs": [
        {
          "internalType": "address",
          "name": "",
          "type": "address"
        }
      ],
      "stateMutability": "view",
      "type": "function"
    },
    {
      "inputs": [],
      "name": "withdraw",
      "outputs": [],
      "stateMutability": "nonpayable",
      "type": "function"
    }
  ],
  "bytecode": "0x60a0604052348015600f57600080fd5b503373ffffffffffffffffffffffffffffffffffffffff1660808173ffffffffffffffffffffffffffffffffffffffff1681525050608051610b0561006d6000396000818161014d015281816101d201526105b80152610b056000f3fe6080604052600436106100555760003560e01c80633ccfd60b1461005a5780633e47d6f3146100715780636b69a592146100ae578063b60d4288146100d9578063dba6335f146100e3578063dc0d3dff1461010e575b600080fd5b34801561006657600080fd5b5061006f61014b565b005b34801561007d57600080fd5b5061009860048036038101906100939190610723565b610413565b6040516100a59190610769565b60405180910390f35b3480156100ba57600080fd5b506100c361042b565b6040516100d09190610769565b60405180910390f35b6100e1610437565b005b3480156100ef57600080fd5b506100f86105b6565b6040516101059190610793565b60405180910390f35b34801561011a57600080fd5b50610135600480360381019061013091906107da565b6105da565b6040516101429190610793565b60405180910390f35b7f000000000000000000000000000000000000000000000000000000000000000073ffffffffffffffffffffffffffffffffffffffff163373ffffffffffffffffffffffffffffffffffffffff16146101d0576040517f251c9d6300000000000000000000000000000000000000000000000000000000815260040160405180910390fd5b7f000000000000000000000000000000000000000000000000000000000000000073ffffffffffffffffffffffffffffffffffffffff163373ffffffffffffffffffffffffffffffffffffffff161461025e576040517f08c379a000000000000000000000000000000000000000000000000000000000815260040161025590610864565b60405180910390fd5b60005b60008054905081101561030357600080828154811061028357610282610884565b5b9060005260206000200160009054906101000a900473ffffffffffffffffffffffffffffffffffffffff1690506000600160008373ffffffffffffffffffffffffffffffffffffffff1673ffffffffffffffffffffffffffffffffffffffff16815260200190815260200160002081905550508080600101915050610261565b50600067ffffffffffffffff81111561031f5761031e6108b3565b5b60405190808252806020026020018201604052801561034d5781602001602082028036833780820191505090505b5060009080519060200190610363929190610619565b5060003373ffffffffffffffffffffffffffffffffffffffff164760405161038a90610913565b60006040518083038185875af1925050503d80600081146103c7576040519150601f19603f3d011682016040523d82523d6000602084013e6103cc565b606091505b5050905080610410576040517f08c379a000000000000000000000000000000000000000000000000000000000815260040161040790610974565b60405180910390fd5b50565b60016020528060005260406000206000915090505481565b670de0b6b3a764000081565b670de0b6b3a76400003473__$970d497a1df28a900e3dd97e15a13b1bae$__63712b71c890916040518263ffffffff1660e01b815260040161047991906109a3565b602060405180830381865af4158015610496573d6000803e3d6000fd5b505050506040513d601f19601f820116820180604052508101906104ba91906109d3565b10156104fb576040517f08c379a00000000000000000000000000000000000000000000000000000000081526004016104f290610a4c565b60405180910390fd5b6000339080600181540180825580915050600190039060005260206000200160009091909190916101000a81548173ffffffffffffffffffffffffffffffffffffffff021916908373ffffffffffffffffffffffffffffffffffffffff16021790555034600160003373ffffffffffffffffffffffffffffffffffffffff1673ffffffffffffffffffffffffffffffffffffffff16815260200190815260200160002060008282546105ad9190610a9b565b92505081905550565b7f000000000000000000000000000000000000000000000000000000000000000081565b600081815481106105ea57600080fd5b906000526020600020016000915054906101000a900473ffffffffffffffffffffffffffffffffffffffff1681565b828054828255906000526020600020908101928215610692579160200282015b828111156106915782518260006101000a81548173ffffffffffffffffffffffffffffffffffffffff021916908373ffffffffffffffffffffffffffffffffffffffff16021790555091602001919060010190610639565b5b50905061069f91906106a3565b5090565b5b808211156106bc5760008160009055506001016106a4565b5090565b600080fd5b600073ffffffffffffffffffffffffffffffffffffffff82169050919050565b60006106f0826106c5565b9050919050565b610700816106e5565b811461070b57600080fd5b50565b60008135905061071d816106f7565b92915050565b600060208284031215610739576107386106c0565b5b60006107478482850161070e565b91505092915050565b6000819050919050565b61076381610750565b82525050565b600060208201905061077e600083018461075a565b92915050565b61078d816106e5565b82525050565b60006020820190506107a86000830184610784565b92915050565b6107b781610750565b81146107c257600080fd5b50565b6000813590506107d4816107ae565b92915050565b6000602082840312156107f0576107ef6106c0565b5b60006107fe848285016107c5565b91505092915050565b600082825260208201905092915050565b7f596f7520617265206e6f7420746865206f776e65720000000000000000000000600082015250565b600061084e601583610807565b915061085982610818565b602082019050919050565b6000602082019050818103600083015261087d81610841565b9050919050565b7f4e487b7100000000000000000000000000000000000000000000000000000000600052603260045260246000fd5b7f4e487b7100000000000000000000000000000000000000000000000000000000600052604160045260246000fd5b600081905092915050565b50565b60006108fd6000836108e2565b9150610908826108ed565b600082019050919050565b600061091e826108f0565b9150819050919050565b7f4661696c656420746f2073656e64204574686572000000000000000000000000600082015250565b600061095e601483610807565b915061096982610928565b602082019050919050565b6000602082019050818103600083015261098d81610951565b9050919050565b61099d81610750565b82525050565b60006020820190506109b86000830184610994565b92915050565b6000815190506109cd816107ae565b92915050565b6000602082840312156109e9576109e86106c0565b5b60006109f7848285016109be565b91505092915050565b7f596f75206e65656420746f207370656e64206d6f726520455448210000000000600082015250565b6000610a36601b83610807565b9150610a4182610a00565b602082019050919050565b60006020820190508181036000830152610a6581610a29565b9050919050565b7f4e487b7100000000000000000000000000000000000000000000000000000000600052601160045260246000fd5b6000610aa682610750565b9150610ab183610750565b9250828201905080821115610ac957610ac8610a6c565b5b9291505056fea26469706673582212209705defe3c3e6f69489b9b691a81c23071850ca9420332435ae729e9cc7783e464736f6c634300081b0033",
  "linkReferences": {
    "contracts/PriceConverter.sol": {
      "PriceConverter": [
        {
          "length": 20,
          "start": 1200
        }
      ]
    }
  },
  "deployedLinkReferences": {
    "contracts/PriceConverter.sol": {
      "PriceConverter": [
        {
          "length": 20,
          "start": 1091
        }
      ]
    }
  }
}