{
  "_format": "hh-sol-artifact-1",
  "contractName": "PriceConverter",
  "sourceName": "contracts/PriceConverter.sol",
  "abi": [
    {
      "inputs": [
        {
          "internalType": "uint256",
          "name": "ethAmount",
          "type": "uint256"
        }
      ],
      "name": "conversionRate",
      "outputs": [
        {
          "internalType": "uint256",
          "name": "",
          "type": "uint256"
        }
      ],
      "stateMutability": "view",
      "type": "function"
    },
    {
      "inputs": [],
      "name": "getPrice",
      "outputs": [
        {
          "internalType": "uint256",
          "name": "",
          "type": "uint256"
        }
      ],
      "stateMutability": "view",
      "type": "function"
    },
    {
      "inputs": [],
      "name": "getVersion",
      "outputs": [
        {
          "internalType": "uint256",
          "name": "",
          "type": "uint256"
        }
      ],
      "stateMutability": "view",
      "type": "function"
    }
  ],
  "bytecode": "0x61056f610052600b82828239805160001a6073146045577f4e487b7100000000000000000000000000000000000000000000000000000000600052600060045260246000fd5b30600052607381538281f3fe730000000000000000000000000000000000000000301460806040526004361061004b5760003560e01c80630d8e6e2c14610050578063712b71c81461006e57806398d5fdca1461009e575b600080fd5b6100586100bc565b6040516100659190610242565b60405180910390f35b6100886004803603810190610083919061028e565b610146565b6040516100959190610242565b60405180910390f35b6100a6610180565b6040516100b39190610242565b60405180910390f35b600073694aa1769357215de4fac081bf1f309adc32530673ffffffffffffffffffffffffffffffffffffffff166354fd4d506040518163ffffffff1660e01b8152600401602060405180830381865afa15801561011d573d6000803e3d6000fd5b505050506040513d601f19601f8201168201806040525081019061014191906102d0565b905090565b600080610151610180565b90506000670de0b6b3a7640000848361016a919061032c565b610174919061039d565b90508092505050919050565b60008073694aa1769357215de4fac081bf1f309adc325306905060008173ffffffffffffffffffffffffffffffffffffffff1663feaf968c6040518163ffffffff1660e01b815260040160a060405180830381865afa1580156101e7573d6000803e3d6000fd5b505050506040513d601f19601f8201168201806040525081019061020b9190610446565b5050509150506402540be4008161022291906104c1565b9250505090565b6000819050919050565b61023c81610229565b82525050565b60006020820190506102576000830184610233565b92915050565b600080fd5b61026b81610229565b811461027657600080fd5b50565b60008135905061028881610262565b92915050565b6000602082840312156102a4576102a361025d565b5b60006102b284828501610279565b91505092915050565b6000815190506102ca81610262565b92915050565b6000602082840312156102e6576102e561025d565b5b60006102f4848285016102bb565b91505092915050565b7f4e487b7100000000000000000000000000000000000000000000000000000000600052601160045260246000fd5b600061033782610229565b915061034283610229565b925082820261035081610229565b91508282048414831517610367576103666102fd565b5b5092915050565b7f4e487b7100000000000000000000000000000000000000000000000000000000600052601260045260246000fd5b60006103a882610229565b91506103b383610229565b9250826103c3576103c261036e565b5b828204905092915050565b600069ffffffffffffffffffff82169050919050565b6103ed816103ce565b81146103f857600080fd5b50565b60008151905061040a816103e4565b92915050565b6000819050919050565b61042381610410565b811461042e57600080fd5b50565b6000815190506104408161041a565b92915050565b600080600080600060a086880312156104625761046161025d565b5b6000610470888289016103fb565b955050602061048188828901610431565b9450506040610492888289016102bb565b93505060606104a3888289016102bb565b92505060806104b4888289016103fb565b9150509295509295909350565b60006104cc82610410565b91506104d783610410565b92508282026104e581610410565b91507f8000000000000000000000000000000000000000000000000000000000000000841460008412161561051d5761051c6102fd565b5b8282058414831517610532576105316102fd565b5b509291505056fea26469706673582212200f8079bb9fd3f0d6772da4d326ed218acc041781d3088359ac9c817c681ff57f64736f6c634300081b0033",
  "linkReferences": {},
  "deployedLinkReferences": {}
}