{
  "_format": "hh-sol-artifact-1",
  "contractName": "PriceConverter",
  "sourceName": "contracts/PriceConverter.sol",
  "abi": [
    {
      "inputs": [
        {
          "internalType": "uint256",
          "name": "ethAmount",
          "type": "uint256"
        }
      ],
      "name": "conversionRate",
      "outputs": [
        {
          "internalType": "uint256",
          "name": "",
          "type": "uint256"
        }
      ],
      "stateMutability": "view",
      "type": "function"
    },
    {
      "inputs": [],
      "name": "getPrice",
      "outputs": [
        {
          "internalType": "uint256",
          "name": "",
          "type": "uint256"
        }
      ],
      "stateMutability": "view",
      "type": "function"
    }
  ],
  "bytecode": "0x61048f610052600b82828239805160001a6073146045577f4e487b7100000000000000000000000000000000000000000000000000000000600052600060045260246000fd5b30600052607381538281f3fe73000000000000000000000000000000000000000030146080604052600436106100405760003560e01c8063712b71c81461004557806398d5fdca14610075575b600080fd5b61005f600480360381019061005a91906101b1565b610093565b60405161006c91906101ed565b60405180910390f35b61007d6100cd565b60405161008a91906101ed565b60405180910390f35b60008061009e6100cd565b90506000670de0b6b3a764000084836100b79190610237565b6100c191906102a8565b90508092505050919050565b60008073694aa1769357215de4fac081bf1f309adc325306905060008173ffffffffffffffffffffffffffffffffffffffff1663feaf968c6040518163ffffffff1660e01b815260040160a060405180830381865afa158015610134573d6000803e3d6000fd5b505050506040513d601f19601f820116820180604052508101906101589190610366565b5050509150506402540be4008161016f91906103e1565b9250505090565b600080fd5b6000819050919050565b61018e8161017b565b811461019957600080fd5b50565b6000813590506101ab81610185565b92915050565b6000602082840312156101c7576101c6610176565b5b60006101d58482850161019c565b91505092915050565b6101e78161017b565b82525050565b600060208201905061020260008301846101de565b92915050565b7f4e487b7100000000000000000000000000000000000000000000000000000000600052601160045260246000fd5b60006102428261017b565b915061024d8361017b565b925082820261025b8161017b565b9150828204841483151761027257610271610208565b5b5092915050565b7f4e487b7100000000000000000000000000000000000000000000000000000000600052601260045260246000fd5b60006102b38261017b565b91506102be8361017b565b9250826102ce576102cd610279565b5b828204905092915050565b600069ffffffffffffffffffff82169050919050565b6102f8816102d9565b811461030357600080fd5b50565b600081519050610315816102ef565b92915050565b6000819050919050565b61032e8161031b565b811461033957600080fd5b50565b60008151905061034b81610325565b92915050565b60008151905061036081610185565b92915050565b600080600080600060a0868803121561038257610381610176565b5b600061039088828901610306565b95505060206103a18882890161033c565b94505060406103b288828901610351565b93505060606103c388828901610351565b92505060806103d488828901610306565b9150509295509295909350565b60006103ec8261031b565b91506103f78361031b565b92508282026104058161031b565b91507f8000000000000000000000000000000000000000000000000000000000000000841460008412161561043d5761043c610208565b5b828205841483151761045257610451610208565b5b509291505056fea264697066735822122056d11b37388a848aebf9b0ede4304ce5007b1d45a47d8b42dd2a1ca7216bbbae64736f6c634300081b0033",
  "linkReferences": {},
  "deployedLinkReferences": {}
}